{
  "_format": "hh-sol-artifact-1",
  "contractName": "MiniStateMachine",
  "sourceName": "contracts/MiniStateMachineHardhat.sol",
  "abi": [
    {
      "inputs": [],
      "stateMutability": "nonpayable",
      "type": "constructor"
    },
    {
      "anonymous": false,
      "inputs": [
        {
          "indexed": false,
          "internalType": "address",
          "name": "user",
          "type": "address"
        },
        {
          "indexed": false,
          "internalType": "uint256",
          "name": "_x",
          "type": "uint256"
        }
      ],
      "name": "Updated",
      "type": "event"
    },
    {
      "inputs": [],
      "name": "getX",
      "outputs": [
        {
          "internalType": "uint256",
          "name": "",
          "type": "uint256"
        }
      ],
      "stateMutability": "view",
      "type": "function"
    },
    {
      "inputs": [],
      "name": "montant",
      "outputs": [
        {
          "internalType": "uint256",
          "name": "",
          "type": "uint256"
        }
      ],
      "stateMutability": "view",
      "type": "function"
    },
    {
      "inputs": [],
      "name": "owner",
      "outputs": [
        {
          "internalType": "address payable",
          "name": "",
          "type": "address"
        }
      ],
      "stateMutability": "view",
      "type": "function"
    },
    {
      "inputs": [
        {
          "internalType": "uint256",
          "name": "_x",
          "type": "uint256"
        }
      ],
      "name": "setValue",
      "outputs": [],
      "stateMutability": "nonpayable",
      "type": "function"
    },
    {
      "inputs": [
        {
          "internalType": "uint256",
          "name": "_x",
          "type": "uint256"
        }
      ],
      "name": "setValuePayable",
      "outputs": [],
      "stateMutability": "payable",
      "type": "function"
    },
    {
      "inputs": [],
      "name": "x",
      "outputs": [
        {
          "internalType": "uint256",
          "name": "",
          "type": "uint256"
        }
      ],
      "stateMutability": "view",
      "type": "function"
    }
  ],
  "bytecode": "0x608060405266038d7ea4c6800060005534801561001b57600080fd5b5033600260006101000a81548173ffffffffffffffffffffffffffffffffffffffff021916908373ffffffffffffffffffffffffffffffffffffffff1602179055506104598061006c6000396000f3fe6080604052600436106100555760003560e01c80630c55699c1461005a5780635197c7aa1461008557806355241077146100b05780635cc1eb0b146100eb5780637563c660146101195780638da5cb5b14610144575b600080fd5b34801561006657600080fd5b5061006f610185565b6040518082815260200191505060405180910390f35b34801561009157600080fd5b5061009a61018b565b6040518082815260200191505060405180910390f35b3480156100bc57600080fd5b506100e9600480360360208110156100d357600080fd5b8101908080359060200190929190505050610195565b005b6101176004803603602081101561010157600080fd5b81019080803590602001909291905050506102b7565b005b34801561012557600080fd5b5061012e6103f7565b6040518082815260200191505060405180910390f35b34801561015057600080fd5b506101596103fd565b604051808273ffffffffffffffffffffffffffffffffffffffff16815260200191505060405180910390f35b60015481565b6000600154905090565b600260009054906101000a900473ffffffffffffffffffffffffffffffffffffffff1673ffffffffffffffffffffffffffffffffffffffff163373ffffffffffffffffffffffffffffffffffffffff1614610258576040517f08c379a00000000000000000000000000000000000000000000000000000000081526004018080602001828103825260108152602001807f596f75277265206e6f74206f776e65720000000000000000000000000000000081525060200191505060405180910390fd5b806001819055507f3eaf52d76d675c02ceed20f7ebcafbd308b4b8f24b33233e3c631749f1fbf23a3382604051808373ffffffffffffffffffffffffffffffffffffffff1681526020018281526020019250505060405180910390a150565b60005434101561032f576040517f08c379a00000000000000000000000000000000000000000000000000000000081526004018080602001828103825260128152602001807f466f6e647320696e737566666973616e7473000000000000000000000000000081525060200191505060405180910390fd5b80600181905550600260009054906101000a900473ffffffffffffffffffffffffffffffffffffffff1673ffffffffffffffffffffffffffffffffffffffff166108fc349081150290604051600060405180830381858888f1935050505015801561039e573d6000803e3d6000fd5b507f3eaf52d76d675c02ceed20f7ebcafbd308b4b8f24b33233e3c631749f1fbf23a3382604051808373ffffffffffffffffffffffffffffffffffffffff1681526020018281526020019250505060405180910390a150565b60005481565b600260009054906101000a900473ffffffffffffffffffffffffffffffffffffffff168156fea2646970667358221220fe66d920b21960d5a7243942de600d8dbac2b3a79d73d8f7a67501513eab06d664736f6c63430007030033",
  "linkReferences": {},
  "deployedLinkReferences": {}
}