{
  "_format": "hh-sol-artifact-1",
  "contractName": "MiniStateMachine",
  "sourceName": "contracts/MiniStateMachineHardhat.sol",
  "abi": [
    {
      "inputs": [],
      "stateMutability": "nonpayable",
      "type": "constructor"
    },
    {
      "anonymous": false,
      "inputs": [
        {
          "indexed": false,
          "internalType": "address",
          "name": "user",
          "type": "address"
        },
        {
          "indexed": false,
          "internalType": "uint256",
          "name": "_x",
          "type": "uint256"
        }
      ],
      "name": "Updated",
      "type": "event"
    },
    {
      "inputs": [
        {
          "internalType": "address",
          "name": "",
          "type": "address"
        }
      ],
      "name": "balances",
      "outputs": [
        {
          "internalType": "uint256",
          "name": "",
          "type": "uint256"
        }
      ],
      "stateMutability": "view",
      "type": "function"
    },
    {
      "inputs": [],
      "name": "getX",
      "outputs": [
        {
          "internalType": "uint256",
          "name": "",
          "type": "uint256"
        }
      ],
      "stateMutability": "view",
      "type": "function"
    },
    {
      "inputs": [],
      "name": "montant",
      "outputs": [
        {
          "internalType": "uint256",
          "name": "",
          "type": "uint256"
        }
      ],
      "stateMutability": "view",
      "type": "function"
    },
    {
      "inputs": [],
      "name": "owner",
      "outputs": [
        {
          "internalType": "address",
          "name": "",
          "type": "address"
        }
      ],
      "stateMutability": "view",
      "type": "function"
    },
    {
      "inputs": [
        {
          "internalType": "uint256",
          "name": "_x",
          "type": "uint256"
        }
      ],
      "name": "setValue",
      "outputs": [],
      "stateMutability": "nonpayable",
      "type": "function"
    },
    {
      "inputs": [
        {
          "internalType": "uint256",
          "name": "_x",
          "type": "uint256"
        }
      ],
      "name": "setValuePayable",
      "outputs": [],
      "stateMutability": "payable",
      "type": "function"
    },
    {
      "inputs": [],
      "name": "x",
      "outputs": [
        {
          "internalType": "uint256",
          "name": "",
          "type": "uint256"
        }
      ],
      "stateMutability": "view",
      "type": "function"
    }
  ],
  "bytecode": "0x6080604052600160005534801561001557600080fd5b5033600360006101000a81548173ffffffffffffffffffffffffffffffffffffffff021916908373ffffffffffffffffffffffffffffffffffffffff16021790555061052c806100666000396000f3fe6080604052600436106100705760003560e01c8063552410771161004e57806355241077146101305780635cc1eb0b1461016b5780637563c660146101995780638da5cb5b146101c457610070565b80630c55699c1461007557806327e235e3146100a05780635197c7aa14610105575b600080fd5b34801561008157600080fd5b5061008a610205565b6040518082815260200191505060405180910390f35b3480156100ac57600080fd5b506100ef600480360360208110156100c357600080fd5b81019080803573ffffffffffffffffffffffffffffffffffffffff16906020019092919050505061020b565b6040518082815260200191505060405180910390f35b34801561011157600080fd5b5061011a610223565b6040518082815260200191505060405180910390f35b34801561013c57600080fd5b506101696004803603602081101561015357600080fd5b810190808035906020019092919050505061022d565b005b6101976004803603602081101561018157600080fd5b810190808035906020019092919050505061034f565b005b3480156101a557600080fd5b506101ae6104ca565b6040518082815260200191505060405180910390f35b3480156101d057600080fd5b506101d96104d0565b604051808273ffffffffffffffffffffffffffffffffffffffff16815260200191505060405180910390f35b60015481565b60026020528060005260406000206000915090505481565b6000600154905090565b600360009054906101000a900473ffffffffffffffffffffffffffffffffffffffff1673ffffffffffffffffffffffffffffffffffffffff163373ffffffffffffffffffffffffffffffffffffffff16146102f0576040517f08c379a00000000000000000000000000000000000000000000000000000000081526004018080602001828103825260108152602001807f596f75277265206e6f74206f776e65720000000000000000000000000000000081525060200191505060405180910390fd5b806001819055507f3eaf52d76d675c02ceed20f7ebcafbd308b4b8f24b33233e3c631749f1fbf23a3382604051808373ffffffffffffffffffffffffffffffffffffffff1681526020018281526020019250505060405180910390a150565b600260003373ffffffffffffffffffffffffffffffffffffffff1673ffffffffffffffffffffffffffffffffffffffff168152602001908152602001600020546103e86000548161039c57fe5b041115610411576040517f08c379a000000000000000000000000000000000000000000000000000000000815260040180806020018281038252601b8152602001807f466f6e6473206d6f6e65746169726520696e737566666973616e74000000000081525060200191505060405180910390fd5b6103e86000548161041e57fe5b04600260003373ffffffffffffffffffffffffffffffffffffffff1673ffffffffffffffffffffffffffffffffffffffff16815260200190815260200160002060008282540392505081905550806001819055507f3eaf52d76d675c02ceed20f7ebcafbd308b4b8f24b33233e3c631749f1fbf23a3382604051808373ffffffffffffffffffffffffffffffffffffffff1681526020018281526020019250505060405180910390a150565b60005481565b600360009054906101000a900473ffffffffffffffffffffffffffffffffffffffff168156fea2646970667358221220af0fdbdc42feac98f2ee3d8a552fadfe0004ddc2eff51da751ac37873d6d608f64736f6c63430007030033",
  "linkReferences": {},
  "deployedLinkReferences": {}
}